:020000040800F2
:10000000000001200D9B0008E14E00089D520008F1
:10001000A3520008A9520008AF52000800000000D7
:10002000000000000000000000000000C1520008B5
:10003000B552000800000000CD520008D952000857
:10004000519B0008519B0008519B0008519B0008E0
:10005000519B0008519B0008519B0008A1500008CB
:10006000519B000809510008519B0008519B000852
:10007000519B0008519B0008519B0008519B0008B0
:10008000519B0008519B0008519B0008519B0008A0
:10009000519B0008519B0008519B000835510008F6
:1000A000519B0008519B0008519B0008519B000880
:1000B000ED4E0008F94E0008519B0008519B0008C6
:1000C000519B0008519B0008519B0008519B000860
:1000D000519B0008DD5100081D520008519B00088B
:1000E00079510008519B0008519B0008519B000862
:1000F000519B0008519B0008519B0008519B000830
:10010000519B0008519B0008519B0008519B00081F
:100110005D520008519B0008519B0008519B00084C
:10012000519B0008519B0008519B0008519B0008FF
:1001300000000000000000000000000000000000BF
:1001400000000000000000000000000000000000AF
:10015000000000000000000000000000000000009F
:10016000000000000000000000000000000000008F
:10017000000000000000000000000000000000007F
:10018000000000000000000000000000000000006F
:10019000000000000000000000000000000000005F
:1001A000000000000000000000000000000000004F
:1001B000000000000000000000000000000000003F
:1001C000000000000000000000000000000000002F
:1001D000000000000000000000000000000000001F
:0401E0005FF8E0F1F3
:1001E80010B5054C237833B9044B13B10448AFF369
:1001F80000800123237010BD34000020000000009F
:10020800E401000808B5034B1BB103490348AFF3E9
:10021800008008BD0000000038000020E40100084C
:1002280080B400AF094B00221A60084B00225A60C4
:10023800064B00229A60054B0022DA60034B044A01
:100248005A6100BFBD4680BC704700BF0004014032
:10025800FFFF0F0080B485B000AF78600023FB601B
:10026800344BFB607B689B79002B4FD0314B1A686D
:100278007B681B68DB432F4913400B602D4B5A6882
:100288007B681B68DB432B4913404B607B681B79F9
:100298001A46FB681344FB60FB6819687B681A6898
:1002A800FB680A431A60234B9A687B681B68DB4328
:1002B800204913408B601F4BDA687B681B68DB435F
:1002C8001C491340CB607B685B79102B0ED1194B0E
:1002D8009A687B681B68174913438B60154BDA686B
:1002E8007B681B6813491343CB601DE0114BFB600F
:1002F8007B685B791A46FB681344FB60FB681968E6
:100308007B681A68FB680A431A600DE07B681B79F2
:100318001A46FB681344FB60FB6819687B681B6816
:10032800DA43FB680A401A6000BF1437BD4680BC38
:10033800704700BF0004014080B483B000AF78600C
:100348007B6800221A607B6800221A717B680C2285
:100358005A717B6800229A7100BF0C37BD4680BC79
:10036800704780B483B000AF7860054B1A690449C0
:100378007B6813430B6100BF0C37BD4680BC7047D8
:100388000004014080B485B000AF78600023FB739F
:10039800084B5A697B681340002B02D00123FB737A
:1003A80001E00023FB73FB7B18461437BD4680BC75
:1003B800704700BF0004014080B483B000AF78608C
:1003C800034A7B68536100BF0C37BD4680BC704749
:1003D8000004014080B485B000AF78600023FB734F
:1003E8000023BB600C4B1B687A681340BB600A4B48
:1003F8005A697B681340002B05D0BB68002B02D0DC
:100408000123FB7301E00023FB73FB7B18461437C1
:10041800BD4680BC704700BF0004014080B483B073
:1004280000AF7860034A7B68536100BF0C37BD4654
:1004380080BC70470004014080B582B000AF78608E
:100448007B682F4A934208D10121042000F0EAFD7D
:100458000021042000F0E6FD4EE07B68294A934223
:1004680008D10121082000F0DDFD0021082000F05E
:10047800D9FD41E07B68244A934208D1012110202C
:1004880000F0D0FD0021102000F0CCFD34E07B68A6
:100498001E4A934208D10121202000F0C3FD00210B
:1004A800202000F0BFFD27E07B68194A934208D15D
:1004B8000121402000F0B6FD0021402000F0B2FDEF
:1004C8001AE07B68134A934208D10121802000F08A
:1004D800A9FD0021802000F0A5FD0DE07B680E4AF3
:1004E800934209D101214FF4807000F09BFD002157
:1004F8004FF4807000F096FD00BF0837BD4680BD00
:1005080000080140000C01400010014000140140A7
:1005180000180140001C01400020014080B500AFD8
:100528000121012000F07EFD0021012000F07AFD6C
:1005380000BF80BD80B489B000AF78603960002307
:10054800FB6100233B610023BB610023FB600023A8
:100558007B610023BB603B68DB7803F00F03FB6122
:100568003B68DB7803F01003002B05D03B689B78D1
:100578001A46FB691343FB613B681B88DBB2002BFF
:1005880044D07B681B687B610023BB6138E0012293
:10059800BB6902FA03F3FB603B681B881A46FB68D9
:1005A80013403B613A69FB689A4226D1BB699B00BC
:1005B800FB600F22FB6802FA03F3BB60BB68DB43F6
:1005C8007A6913407B61FA69FB6802FA03F37A6976
:1005D80013437B613B68DB78282B05D10122BB697B
:1005E8009A407B685A6108E03B68DB78482B04D165
:1005F8000122BB699A407B681A61BB690133BB6100
:10060800BB69072BC3D97B687A691A603B681B886A
:10061800FF2B46D97B685B687B610023BB613AE0AE
:10062800BB690833012202FA03F3FB603B681B88AD
:100638001A46FB6813403B613A69FB689A4227D126
:10064800BB699B00FB600F22FB6802FA03F3BB60E7
:10065800BB68DB437A6913407B61FA69FB6802FA7D
:1006680003F37A6913437B613B68DB78282B05D158
:10067800BB69083301229A407B685A613B68DB7882
:10068800482B05D1BB69083301229A407B681A615F
:10069800BB690133BB61BB69072BC1D97B687A6928
:1006A8005A6000BF2437BD4680BC704780B483B011
:1006B80000AF78607B684FF6FF721A807B68022271
:1006C8009A707B680422DA7000BF0C37BD4680BC84
:1006D800704780B485B000AF78600B467B800023FC
:1006E800FB737B689A687B881340002B02D0012338
:1006F800FB7301E00023FB73FB7B18461437BD46F0
:1007080080BC704780B483B000AF78607B689B681A
:100718009BB218460C37BD4680BC704780B485B084
:1007280000AF78600B467B800023FB737B68DA6838
:100738007B881340002B02D00123FB7301E00023C8
:10074800FB73FB7B18461437BD4680BC704780B4EA
:1007580083B000AF78607B68DB689BB218460C37C3
:10076800BD4680BC704780B483B000AF78600B464C
:100778007B807A887B681A6100BF0C37BD4680BCD5
:10078800704780B483B000AF78600B467B807A886E
:100798007B685A6100BF0C37BD4680BC704780B487
:1007A80083B000AF78600B467B8013467B707B7804
:1007B800002B03D07A887B681A6102E07A887B680C
:1007C8005A6100BF0C37BD4680BC704780B483B007
:1007D80000AF78600B467B807A887B68DA6000BF60
:1007E8000C37BD4680BC704780B485B000AF7860D8
:1007F8000B467B804FF48033FB607B88FA68134399
:10080800FB607B68FA689A617A887B689A617B6882
:10081800FA689A617B689B69FB607B689B69FB60EF
:1008280000BF1437BD4680BC704780B485B000AFA8
:1008380003460A46FB711346BB710023FB600C4B51
:100848001B68FB60FA684FF680731340FB60FB7906
:100858001B01FA681343FB60BB79FA681343FB601A
:10086800034AFB68136000BF1437BD4680BC70475D
:100878000000014080B483B000AF0346FB71044A16
:10088800FB79136000BF0C37BD4680BC704700BFC2
:100898001C00204280B487B000AF78600B46FB7024
:1008A80000233B610023FB6000237B610023BB60C6
:1008B8007B68002B03DA2E4BDB697B6102E02C4B53
:1008C8005B687B617B681B0C03F00F03BB607B6874
:1008D8009BB23B617B6803F44013B3F5401F0AD118
:1008E8007B6923F070637B61214B5B68204A23F0AE
:1008F8007063536021E07B6803F48013002B0ED0F3
:100908000322BB6802FA03F3FB60FB68DB437A69E6
:1009180013407B617B6943F070637B610DE07B680A
:100928005B0D1B013A6902FA03F3DB437A69134052
:100938007B617B6943F070637B61FB78002B08D097
:100948007B685B0D1B013A6902FA03F37A6913436A
:100958007B617B68002B03DA054A7B69D36102E07F
:10096800034A7B69536000BF1C37BD4680BC704793
:100978000000014080B485B000AF03460A46FB7111
:100988001346BB710023FB60BB7903F003039B0094
:100998000F2202FA03F3FB60154ABB799B08DBB20E
:1009A800023352F82320FB68DB431148B9798908E0
:1009B800C9B21A408B1C40F823200D4ABB799B080A
:1009C800DBB2023352F82320F979BB7903F0030331
:1009D8009B0001FA03F30648B9798908C9B21A439A
:1009E8008B1C40F8232000BF1437BD4680BC7047DD
:1009F8000000014080B483B000AF7860034A7B6890
:100A0800136000BF0C37BD4680BC7047DC00204235
:100A180080B400AF134B1B68124A43F00103136004
:100A2800104B5A680F49104B13404B600D4B1B6815
:100A38000C4A23F0847323F480331360094B1B683A
:100A4800084A23F480231360064B5B68054A23F4A5
:100A5800FE035360034B4FF41F029A6000BFBD466C
:100A680080BC7047001002400000FFF880B483B0DB
:100A780000AF7860134B1B68124A23F4803313606D
:100A8800104B1B680F4A23F4802313607B68B3F56F
:100A9800803F03D0B3F5802F07D00DE0094B1B68CA
:100AA800084A43F48033136006E0064B1B68054A86
:100AB80043F4A023136000BF00BF0C37BD4680BCC1
:100AC800704700BF0010024080B582B000AF00231D
:100AD8003B600023FB710023BB71312000F00EFB4B
:100AE8000346BB713B6801333B603B68B3F5A06FBD
:100AF80002D0BB79002BF0D0312000F0FFFA03467A
:100B0800002B02D00123FB7101E00023FB71FB796C
:100B180018460837BD4680BD80B485B000AF03468F
:100B2800FB710023FB600A4B1B68FB60FB6823F02A
:100B3800F803FB60FB79DB00FA681343FB60044AA7
:100B4800FB68136000BF1437BD4680BC704700BF08
:100B58000010024080B483B000AF0346FB71044A22
:100B6800FB79136000BF0C37BD4680BC704700BFDF
:100B78000000424280B485B000AF7860396000233D
:100B8800FB600A4B5B68FB60FB6823F47C13FB602B
:100B98007A683B681343FA681343FB60034AFB68AF
:100BA800536000BF1437BD4680BC70470010024038
:100BB80080B483B000AF0346FB71044AFB7913602D
:100BC80000BF0C37BD4680BC704700BF6000424282
:100BD80080B485B000AF78600023FB60094B5B6888
:100BE800FB60FB6823F00303FB60FA687B68134330
:100BF800FB60044AFB68536000BF1437BD4680BCE5
:100C0800704700BF0010024080B400AF044B5B681F
:100C1800DBB203F00C03DBB21846BD4680BC70475C
:100C28000010024080B485B000AF78600023FB60FC
:100C3800094B5B68FB60FB6823F0F003FB60FA6814
:100C48007B681343FB60044AFB68536000BF14379A
:100C5800BD4680BC704700BF0010024080B485B01C
:100C680000AF78600023FB60094B5B68FB60FB68A2
:100C780023F4E063FB60FA687B681343FB60044A73
:100C8800FB68536000BF1437BD4680BC704700BF87
:100C98000010024080B485B000AF78600023FB608C
:100CA800094B5B68FB60FB6823F46053FB607B685F
:100CB800DB00FA681343FB60034AFB68536000BF1C
:100CC8001437BD4680BC70470010024080B483B022
:100CD80000AF03460A46FB711346BB71BB79002B74
:100CE80008D00C4B1B78DAB20A49FB791343DBB204
:100CF8000B7009E0074B1B78DAB2FB79DB43DBB2F8
:100D080004491340DBB20B7000BF0C37BD4680BCF2
:100D1800704700BF0910024080B483B000AF78600C
:100D2800034A7B68136000BF0C37BD4680BC704720
:100D3800D800424280B485B000AF78600023FB60E1
:100D4800094B5B68FB60FB6823F44043FB60FA686F
:100D58007B681343FB60044AFB68536000BF143789
:100D6800BD4680BC704700BF0010024080B483B00D
:100D780000AF0346FB710C4B00221A700A4B00228D
:100D88001A70FB79012B02D0042B04D007E0064B24
:100D980001221A7003E0044B05221A7000BF00BF3D
:100DA8000C37BD4680BC70472010024080B483B029
:100DB80000AF0346FB71044AFB79136000BF0C3790
:100DC800BD4680BC704700BF8004424280B483B0F7
:100DD80000AF7860054B1A6A04497B6813430B62BD
:100DE80000BF0C37BD4680BC704700BF00100240F2
:100DF80080B483B000AF0346FB71044AFB791360EB
:100E080000BF0C37BD4680BC704700BF3C0442425F
:100E180080B487B000AF786000237B6100233B611A
:100E28000023FB600023BB604C4B5B6803F00C03A2
:100E38007B617B69042B07D0082B09D0002B33D1A9
:100E48007B68474A1A6033E07B68454A1A602FE09E
:100E5800424B5B6803F470133B61404B5B6803F4DF
:100E68008033FB603B699B0C02333B61FB68002BC2
:100E780006D13B693B4A02FB03F27B681A6017E024
:100E8800364B5B6803F40033002B06D03B69354AC8
:100E980002FB03F27B681A600AE03B69304A02FBF6
:100EA80003F27B681A6003E07B682D4A1A6000BF72
:100EB8002A4B5B6803F0F0037B617B691B097B614C
:100EC800294A7B6913441B78DBB2BB607B681A68CC
:100ED800BB68DA407B685A60204B5B6803F4E063C8
:100EE8007B617B691B0A7B611F4A7B6913441B7802
:100EF800DBB2BB607B685A68BB68DA407B689A6083
:100F0800164B5B6803F460537B617B69DB0A7B618A
:100F1800154A7B6913441B78DBB2BB607B685A684F
:100F2800BB68DA407B68DA600C4B5B6803F44043CB
:100F38007B617B699B0B7B610C4A7B6913441B7843
:100F4800DBB2BB607B68DA68BB68B2FBF3F27B6834
:100F58001A6100BF1C37BD4680BC704700100240B4
:100F680000127A0000093D00000000201000002057
:100F780080B483B000AF78600B46FB70FB78002B21
:100F880006D0094B5A6908497B6813434B6106E050
:100F9800054B5A697B68DB43034913404B6100BF2B
:100FA8000C37BD4680BC70470010024080B483B047
:100FB80000AF78600B46FB70FB78002B06D0094B1E
:100FC8009A6908497B6813438B6106E0054B9A6967
:100FD8007B68DB43034913408B6100BF0C37BD4678
:100FE80080BC70470010024080B483B000AF7860C6
:100FF8000B46FB70FB78002B06D0094BDA690849D1
:101008007B681343CB6106E0054BDA697B68DB43F9
:1010180003491340CB6100BF0C37BD4680BC704705
:101028000010024080B483B000AF78600B46FB70BC
:10103800FB78002B06D0094BDA6808497B68134314
:10104800CB6006E0054BDA687B68DB430349134055
:10105800CB6000BF0C37BD4680BC70470010024013
:1010680080B483B000AF78600B46FB70FB78002B30
:1010780006D0094B1A6908497B6813430B6106E0DF
:10108800054B1A697B68DB43034913400B6100BFBA
:101098000C37BD4680BC70470010024080B483B056
:1010A80000AF0346FB71044AFB79136000BF0C379D
:1010B800BD4680BC704700BF4004424280B483B044
:1010C80000AF0346FB71044AFB79136000BF0C377D
:1010D800BD4680BC704700BF4C00424280B483B01C
:1010E80000AF0346FB71044AFB79137000BF0C374D
:1010F800BD4680BC704700BF0710024080B487B06F
:1011080000AF0346FB710023FB6000237B610023D3
:10111800FB74FB795B09DBB2FB60FB68012B03D135
:10112800124B1B687B6109E0FB68022B03D10F4B54
:101138001B6A7B6102E00D4B5B6A7B61FB7903F004
:101148001F03FB607A69FB6822FA03F303F00103CB
:10115800002B02D00123FB7401E00023FB74FB7C0D
:1011680018461C37BD4680BC704700BF00100240BF
:1011780080B400AF044B5B6A034A43F08073536248
:1011880000BFBD4680BC70470010024080B485B0E7
:1011980000AF0346FB710023FB73084B9A68FB7989
:1011A8001340002B02D00123FB7301E00023FB73E3
:1011B800FB7B18461437BD4680BC704700100240C0
:1011C80080B483B000AF0346FB71044AFB79137007
:1011D80000BF0C37BD4680BC704700BF0A100240F4
:1011E80080B582B000AF78607B68784A93420AD1B4
:1011F80001214FF40060FFF715FF00214FF4006054
:10120800FFF710FFDEE07B68B3F1804F08D10121C2
:101218000120FFF725FF00210120FFF721FFD1E082
:101228007B686B4A934208D101210220FFF718FF1F
:1012380000210220FFF714FFC4E07B68654A93424F
:1012480008D101210420FFF70BFF00210420FFF73C
:1012580007FFB7E07B68604A934208D10121082064
:10126800FFF7FEFE00210820FFF7FAFEAAE07B68E0
:101278005A4A934208D101211020FFF7F1FE0021BC
:101288001020FFF7EDFE9DE07B68554A934208D198
:1012980001212020FFF7E4FE00212020FFF7E0FED7
:1012A80090E07B684F4A93420AD101214FF40050E5
:1012B800FFF7B8FE00214FF40050FFF7B3FE81E0BE
:1012C8007B68494A93420AD101214FF40020FFF775
:1012D800A9FE00214FF40020FFF7A4FE72E07B680E
:1012E800424A93420AD101214FF48010FFF79AFE37
:1012F80000214FF48010FFF795FE63E07B683C4ABD
:1013080093420AD101214FF40010FFF78BFE002110
:101318004FF40010FFF786FE54E07B68354A93428D
:1013280008D101214020FFF79BFE00214020FFF754
:1013380097FE47E07B68304A934208D1012180201C
:10134800FFF78EFE00218020FFF78AFE3AE07B68D7
:101358002A4A93420AD101214FF48070FFF780FE98
:1013680000214FF48070FFF77BFE2BE07B68244A56
:1013780093420AD101214FF48030FFF753FE002138
:101388004FF48030FFF74EFE1CE07B681D4A934205
:101398000AD101214FF40030FFF744FE00214FF439
:1013A8000030FFF73FFE0DE07B68174A934209D1F2
:1013B80001214FF48020FFF735FE00214FF48020F3
:1013C800FFF730FE00BF0837BD4680BD002C014046
:1013D8000004004000080040000C004000100040DD
:1013E8000014004000340140004C0140005001400E
:1013F8000054014000180040001C0040002000403C
:1014080000400140004401400048014080B485B0DC
:1014180000AF786039600023FB817B681B88FB8103
:101428007B682E4A934213D07B682D4A93420FD093
:101438007B68B3F1804F0BD07B682A4A934207D070
:101448007B68294A934203D07B68284A934208D193
:10145800FB8923F07003FB813B685A88FB8913439F
:10146800FB817B68224A93420CD07B68214A9342D5
:1014780008D0FB8923F44073FB813B68DA88FB8939
:101488001343FB817B68FA891A803B689A887B68DA
:101498009A853B681A887B681A857B680F4A93424D
:1014A8000FD07B680E4A93420BD07B68124A934256
:1014B80007D07B68114A934203D07B68104A934255
:1014C80004D13B681B7A9AB27B681A867B68012232
:1014D8009A8200BF1437BD4680BC7047002C01407B
:1014E800003401400004004000080040000C0040A7
:1014F800001000400014004000400140004401403A
:101508000048014080B485B000AF7860396000239E
:101518007B810023FB810023BB817B681B8C9BB2F2
:1015280023F001039AB27B681A847B681B8CFB81C9
:101538007B689B88BB817B681B8B7B817B8923F0C5
:1015480070037B817B8923F003037B813B681A88C6
:101558007B8913437B81FB8923F00203FB813B6872
:101568001A89FB891343FB813B685A88FB8913431B
:10157800FB817B68244A93420FD07B68234A9342BD
:101588000BD07B68224A934207D07B68214A93425A
:1015980003D07B68204A934223D1FB8923F00803B8
:1015A800FB813B685A89FB891343FB81FB8923F044
:1015B8000403FB813B689A88FB891343FB81BB8941
:1015C80023F48073BB81BB8923F40073BB813B6820
:1015D8009A89BB891343BB813B68DA89BB8913436A
:1015E800BB817B68BA899A807B687A891A833B6851
:1015F800DA887B689A867B68FA891A8400BF143770
:10160800BD4680BC704700BF002C0140003401403B
:1016180000400140004401400048014080B485B0CA
:1016280000AF7860396000237B810023FB810023B1
:10163800BB817B681B8C9BB223F010039AB27B683A
:101648001A847B681B8CFB817B689B88BB817B68C9
:101658001B8B7B817B8923F4E0437B817B8923F48B
:1016680040737B813B681B881B029AB27B891343BA
:101678007B81FB8923F02003FB813B681B891B01CD
:101688009AB2FB891343FB813B685B881B019AB2C2
:10169800FB891343FB817B68224A934203D07B6812
:1016A800214A93422BD1FB8923F08003FB813B68BD
:1016B8005B891B019AB2FB891343FB81FB8923F0E9
:1016C8004003FB813B689B881B019AB2FB8913434B
:1016D800FB81BB8923F48063BB81BB8923F400634E
:1016E800BB813B689B899B009AB2BB891343BB8132
:1016F8003B68DB899B009AB2BB891343BB817B683B
:10170800BA899A807B687A891A833B68DA887B6809
:101718001A877B68FA891A8400BF1437BD4680BCD3
:10172800704700BF002C01400034014080B485B0F0
:1017380000AF7860396000237B810023FB810023A0
:10174800BB817B681B8C9BB223F480739AB27B6845
:101758001A847B681B8CFB817B689B88BB817B68B8
:101768009B8B7B817B8923F070037B817B8923F0B2
:1017780003037B813B681A887B8913437B81FB8940
:1017880023F40073FB813B681B891B029AB2FB8917
:101798001343FB813B685B881B029AB2FB891343A6
:1017A800FB817B68224A934203D07B68214A93429B
:1017B8002BD1FB8923F40063FB813B685B891B0207
:1017C8009AB2FB891343FB81FB8923F48063FB8175
:1017D8003B689B881B029AB2FB891343FB81BB8938
:1017E80023F48053BB81BB8923F40053BB813B683E
:1017F8009B891B019AB2BB891343BB813B68DB8978
:101808001B019AB2BB891343BB817B68BA899A8052
:101818007B687A899A833B68DA887B689A877B68D1
:10182800FA891A8400BF1437BD4680BC704700BFD0
:10183800002C01400034014080B485B000AF7860CE
:1018480039600023BB8100237B810023FB817B68F7
:101858001B8C9BB223F480539AB27B681A847B68F2
:101868001B8C7B817B689B88FB817B689B8BBB8106
:10187800BB8923F4E043BB81BB8923F44073BB815C
:101888003B681B881B029AB2BB891343BB817B89C7
:1018980023F400537B813B681B891B039AB27B8925
:1018A80013437B813B685B881B039AB27B89134394
:1018B8007B817B68124A934203D07B68114A93422A
:1018C8000AD1FB8923F48043FB813B689B899B01F8
:1018D8009AB2FB891343FB817B68FA899A807B68FB
:1018E800BA899A833B68DA887B68A3F840207B68CA
:1018F8007A891A8400BF1437BD4680BC704700BF80
:10190800002C01400034014080B582B000AF7860FF
:1019180039603B681B88002B0FD13B6859883B68AE
:101928009A883B681B89786801F046F93B68DB8830
:101938001946786801F008F836E03B681B88042BE4
:101948000FD13B6859883B689A883B681B8978683F
:1019580001F0A2F93B68DB881946786801F00FF8B6
:1019680022E03B681B88082B0FD13B6859883B68ED
:101978009A883B681B89786801F008FA3B68DB881D
:101988001946786801F018F80EE03B6859883B68FA
:101998009A883B681B89786801F06EFA3B68DB8897
:1019A8001946786801F023F800BF0837BD4680BDA6
:1019B80080B584B000AF786039600023FB810123D3
:1019C800BB813B685B88002B02D10223FB8101E0CD
:1019D8000023FB813B689B88012B02D10223BB813A
:1019E80001E00123BB813B681B88002B1CD13B68AD
:1019F80059883B689A883B681B89786801F0DCF84D
:101A08003B68DB881946786800F09EFF3B681B89B5
:101A1800BA89F989786801F03FF93B68DB8819468B
:101A2800786800F0ACFF1BE03B6859883B689A88EF
:101A38003B681B89786801F02FF93B68DB881946F9
:101A4800786800F09CFF3B681B89BA89F989786837
:101A580001F0B2F83B68DB881946786800F074FF3B
:101A680000BF1037BD4680BD80B483B000AF78603A
:101A780039603B681A883B685B8813439AB23B68B5
:101A88009B8813439AB23B68DB8813439AB23B683E
:101A98001B8913439AB23B685B8913439AB23B682C
:101AA8009B8913439AB27B68A3F8442000BF0C3784
:101AB800BD4680BC704780B483B000AF78607B6857
:101AC8004FF6FF729A807B6800221A807B6800229A
:101AD800DA807B6800225A807B6800221A7200BF75
:101AE8000C37BD4680BC704780B483B000AF7860C7
:101AF8007B6800221A807B6800225A807B6800225B
:101B08009A807B680022DA807B6800221A817B68D1
:101B180000225A817B6800229A817B680022DA8140
:101B280000BF0C37BD4680BC704780B483B000AF9F
:101B380078607B6800221A807B6800225A807B6864
:101B480001229A807B680022DA807B6800221A8151
:101B580000BF0C37BD4680BC704780B483B000AF6F
:101B680078607B6800221A807B6800225A807B6834
:101B780000229A807B680022DA807B6800221A8122
:101B88007B6800225A817B6800229A8100BF0C374B
:101B9800BD4680BC704780B483B000AF78600B4608
:101BA800FB70FB78002B08D07B681B889BB243F046
:101BB80001039AB27B681A8007E07B681B889BB296
:101BC80023F001039AB27B681A8000BF0C37BD4628
:101BD80080BC704780B483B000AF78600B46FB7060
:101BE800FB78002B0CD07B68B3F844309BB26FEACB
:101BF80043436FEA53439AB27B68A3F8442009E051
:101C08007B68B3F844309BB2C3F30E039AB27B6887
:101C1800A3F8442000BF0C37BD4680BC704780B491
:101C280083B000AF78600B467B8013467B707B786F
:101C3800002B08D07B689B899AB27B8813439AB2A1
:101C48007B689A8109E07B689B899AB27B88DB4331
:101C58009BB213409AB27B689A8100BF0C37BD468D
:101C680080BC704780B483B000AF78600B467B803F
:101C78007B687A889A8200BF0C37BD4680BC704763
:101C880080B483B000AF78600B467B8013463B80FE
:101C98007A883B8813439AB27B68A3F8482000BF30
:101CA8000C37BD4680BC704780B483B000AF786005
:101CB8000B467B8013467B707B78002B08D07B68B3
:101CC8009B899AB27B8813439AB27B689A8109E010
:101CD8007B689B899AB27B88DB439BB213409AB29C
:101CE8007B689A8100BF0C37BD4680BC704780B4C2
:101CF80083B000AF78607B681B899BB223F0070331
:101D08009AB27B681A8100BF0C37BD4680BC704709
:101D180080B582B000AF78600B467B807B8819461F
:101D2800786800F0DFF87B681B899BB243F00703F3
:101D38009AB27B681A8100BF0837BD4680BD80B55E
:101D480084B000AFF860084611461A4603467B8106
:101D58000B463B811346FB807B89602B06D1FB88B1
:101D680039890122F86800F097FF05E0FB88398976
:101D78000122F86800F020FF7B891946F86800F016
:101D8800B1F8FB681B899BB243F007039AB2FB6862
:101D98001A8100BF1037BD4680BD80B586B000AF40
:101DA800F860084611461A4603467B810B463B817C
:101DB8001346FB800023FB82FB883A897989F868FF
:101DC80000F039F8FB681B89FB82FB8A23F00703C4
:101DD800FB82FB8A43F00703FB82FB8A23F0700334
:101DE800FB82FB8A43F07003FB82FB68FA8A1A8144
:101DF80000BF1837BD4680BD80B584B000AFF8601D
:101E0800084611461A4603467B810B463B8113461A
:101E1800FB80FB883A897989F86800F00CF8FB6840
:101E28001B899BB243F480439AB2FB681A8100BFB6
:101E38001037BD4680BD80B487B000AFF860084653
:101E480011461A4603467B810B463B811346FB80AD
:101E58000023FB82FB681B89FB82FB8ADBB2FB82C7
:101E6800FB881B029AB23B8913439AB27B891343BE
:101E78009AB2FB8A1343FB82FB68FA8A1A8100BF75
:101E88001C37BD4680BC704780B483B000AF786013
:101E98000B467B8013463B807B687A881A857B6873
:101EA8003A889A8200BF0C37BD4680BC704780B420
:101EB80085B000AF78600B467B800023FB817B6890
:101EC8001B88FB81FB8923F07003FB81FA897B88DF
:101ED8001343FB817B68FA891A8000BF1437BD461B
:101EE80080BC704780B485B000AF78600B467B80BB
:101EF8000023FB817B681B89FB81FB8923F070032E
:101F0800FB81FA897B881343FB817B68FA891A81F4
:101F180000BF1437BD4680BC704780B487B000AF9F
:101F2800F860084611461A4603467B810B463B81FA
:101F38001346FB800023FB820023BB8200237B82A5
:101F4800FB681B89FB82FB681B8BBB82FB681B8CB5
:101F58007B82FB8A23F00703FB82FA8A7B8913437F
:101F6800FB82BB8A23F4407323F00303BB82BB8A42
:101F780043F4807343F00103BB827B8A23F022037E
:101F88007B82FB881B019AB23B8913439AB27B8AF6
:101F980013437B82FB68FA8A1A81FB68BA8A1A8320
:101FA800FB687A8A1A8400BF1C37BD4680BC70471C
:101FB80080B485B000AF78600B467B800023FB813E
:101FC8007B681B8BFB81FB8923F07003FB81FA89FB
:101FD8007B881343FB817B68FA891A8300BF143717
:101FE800BD4680BC704780B485B000AF78600B46B2
:101FF8007B800023FB817B681B8BFB81FB8923F49F
:10200800E043FB817B881B029AB2FB891343FB8167
:102018007B68FA891A8300BF1437BD4680BC7047B5
:1020280080B485B000AF78600B467B800023FB81CD
:102038007B689B8BFB81FB8923F07003FB81FA890A
:102048007B881343FB817B68FA899A8300BF143726
:10205800BD4680BC704780B485B000AF78600B4641
:102068007B800023FB817B689B8BFB81FB8923F4AE
:10207800E043FB817B881B029AB2FB891343FB81F7
:102088007B68FA899A8300BF1437BD4680BC7047C5
:1020980080B483B000AF78600B46FB70FB78002BF0
:1020A80008D07B681B889BB243F080039AB27B6898
:1020B8001A8007E07B681B889BB223F080039AB2E2
:1020C8007B681A8000BF0C37BD4680BC704780B45F
:1020D80083B000AF78600B46FB70FB78002B08D00C
:1020E8007B689B889BB243F004039AB27B689A8012
:1020F80007E07B689B889BB223F004039AB27B6855
:102108009A8000BF0C37BD4680BC704780B483B04E
:1021180000AF78600B46FB70FB78002B08D07B681B
:102128009B889BB243F008039AB27B689A8007E0C9
:102138007B689B889BB223F008039AB27B689A80DD
:1021480000BF0C37BD4680BC704780B483B000AF79
:1021580078600B46FB70FB78002B08D07B689B8867
:102168009BB243F001039AB27B689A8007E07B68D0
:102178009B889BB223F001039AB27B689A8000BFC8
:102188000C37BD4680BC704780B485B000AF78601E
:102198000B467B800023FB817B681B8BFB81FB89C3
:1021A80023F00803FB81FA897B881343FB817B6852
:1021B800FA891A8300BF1437BD4680BC704780B4C3
:1021C80085B000AF78600B467B800023FB817B687D
:1021D8001B8BFB81FB8923F40063FB817B881B023B
:1021E8009AB2FB891343FB817B68FA891A8300BF83
:1021F8001437BD4680BC704780B485B000AF7860A6
:102208000B467B800023FB817B689B8BFB81FB89D2
:1022180023F00803FB81FA897B881343FB817B68E1
:10222800FA899A8300BF1437BD4680BC704780B4D2
:1022380085B000AF78600B467B800023FB817B680C
:102248009B8BFB81FB8923F40063FB817B881B024A
:102258009AB2FB891343FB817B68FA899A8300BF92
:102268001437BD4680BC704780B485B000AF786035
:102278000B467B800023FB817B681B8BFB81FB89E2
:1022880023F00403FB81FA897B881343FB817B6875
:10229800FA891A8300BF1437BD4680BC704780B4E2
:1022A80085B000AF78600B467B800023FB817B689C
:1022B8001B8BFB81FB8923F48063FB817B881B02DA
:1022C8009AB2FB891343FB817B68FA891A8300BFA2
:1022D8001437BD4680BC704780B485B000AF7860C5
:1022E8000B467B800023FB817B689B8BFB81FB89F2
:1022F80023F00403FB81FA897B881343FB817B6805
:10230800FA899A8300BF1437BD4680BC704780B4F1
:1023180085B000AF78600B467B800023FB817B682B
:102328009B8BFB81FB8923F48063FB817B881B02E9
:102338009AB2FB891343FB817B68FA899A8300BFB1
:102348001437BD4680BC704780B485B000AF786054
:102358000B467B800023FB817B681B8BFB81FB8901
:1023680023F08003FB81FA897B881343FB817B6818
:10237800FA891A8300BF1437BD4680BC704780B401
:1023880085B000AF78600B467B800023FB817B68BB
:102398001B8BFB81FB89C3F30E03FB817B881B022C
:1023A8009AB2FB891343FB817B68FA891A8300BFC1
:1023B8001437BD4680BC704780B485B000AF7860E4
:1023C8000B467B800023FB817B689B8BFB81FB8911
:1023D80023F08003FB81FA897B881343FB817B68A8
:1023E800FA899A8300BF1437BD4680BC704780B411
:1023F80085B000AF78600B467B800023FB817B684B
:102408009B8BFB81FB89C3F30E03FB817B881B023B
:102418009AB2FB891343FB817B68FA899A8300BFD0
:102428001437BD4680BC704780B485B000AF786073
:102438000B467B800023FB817B681B8CFB81FB891F
:1024480023F00203FB81FA897B881343FB817B68B5
:10245800FA891A8400BF1437BD4680BC704780B41F
:1024680085B000AF78600B467B800023FB817B68DA
:102478001B8CFB81FB8923F00803FB81FA897B888D
:102488001343FB817B68FA891A8400BF1437BD4661
:1024980080BC704780B485B000AF78600B467B8005
:1024A8000023FB817B681B8CFB81FB8923F02003C5
:1024B800FB817B881B019AB2FB891343FB817B68F4
:1024C800FA891A8400BF1437BD4680BC704780B4AF
:1024D80085B000AF78600B467B800023FB817B686A
:1024E8001B8CFB81FB8923F08003FB817B881B010C
:1024F8009AB2FB891343FB817B68FA891A8400BF6F
:102508001437BD4680BC704780B485B000AF786092
:102518000B467B800023FB817B681B8CFB81FB893E
:1025280023F40073FB817B881B029AB2FB89134357
:10253800FB817B68FA891A8400BF1437BD4680BCCA
:10254800704780B485B000AF78600B467B8000236D
:10255800FB817B681B8CFB81FB8923F40063FB8177
:102568007B881B029AB2FB891343FB817B68FA893B
:102578001A8400BF1437BD4680BC704780B485B04C
:1025880000AF78600B467B800023FB817B681B8C47
:10259800FB81FB8923F40053FB817B881B039AB2E0
:1025A800FB891343FB817B68FA891A8400BF1437BF
:1025B800BD4680BC704780B485B000AF78600B46DC
:1025C8007B8013463B800023FB817B88012202FA33
:1025D80003F3FB817B681B8C9AB2FB89DB439BB2BC
:1025E80013409AB27B681A847B681B8C9AB239882C
:1025F8007B8801FA03F39BB213439AB27B681A846F
:1026080000BF1437BD4680BC704780B485B000AFAA
:1026180078600B467B8013463B800023FB817B88D8
:10262800042202FA03F3FB817B681B8C9AB2FB89B4
:10263800DB439BB213409AB27B681A847B681B8C7D
:102648009AB239887B8801FA03F39BB213439AB292
:102658007B681A8400BF1437BD4680BC704780B4BD
:1026680085B000AF78600B467B8013463B80002323
:10267800FB6000237B817B68FB60FB681833FB6091
:102688007B88012202FA03F37B817B681B8C9AB258
:102698007B89DB439BB213409AB27B681A847B88A0
:1026A800002B02D07B88082B13D17B885B089BB258
:1026B8001A46FB681344FB60FB681A68FB6822F043
:1026C80070021A60FB6819683A88FB680A431A6046
:1026D80017E07B88043B9BB25B089BB21A46FB68F9
:1026E8001344FB60FB681A68FB6822F4E0421A6036
:1026F800FB681A683B881B029BB21946FB680A43B1
:102708001A6000BF1437BD4680BC704780B483B0E0
:1027180000AF78600B46FB70FB78002B08D07B6815
:102728001B889BB243F002039AB27B681A8007E0C9
:102738007B681B889BB223F002039AB27B681A80DD
:1027480000BF0C37BD4680BC704780B483B000AF73
:1027580078600B467B807B88002B08D07B681B88C1
:102768009BB243F004039AB27B681A8007E07B6847
:102778001B889BB223F004039AB27B681A8000BFBF
:102788000C37BD4680BC704780B483B000AF78601A
:102798000B46FB70FB78002B08D07B689B889BB2AC
:1027A80043F080039AB27B689A8007E07B689B8835
:1027B8009BB223F080039AB27B689A8000BF0C37E3
:1027C800BD4680BC704780B483B000AF78600B46CC
:1027D8007B807B681B889BB223F008039AB27B68D6
:1027E8001A807B681B889AB27B8813439AB27B68ED
:1027F8001A8000BF0C37BD4680BC704780B483B0D8
:1028080000AF78600B467B807B689B889BB223F087
:1028180070039AB27B689A807B689B889AB27B889F
:1028280013439AB27B689A8000BF0C37BD4680BCC0
:10283800704780B483B000AF78600B467B807B68BC
:102848001B899BB223F007039AB27B681A817B68C5
:102858001B899AB27B8813439AB27B681A8100BF9E
:102868000C37BD4680BC704780B483B000AF786039
:102878000B467B807B681B899BB223F080039AB24E
:102888007B681A817B681B899AB27B8813439AB24A
:102898007B681A8100BF0C37BD4680BC704780B486
:1028A80083B000AF78600B467B807B687A889A8417
:1028B80000BF0C37BD4680BC704780B483B000AF02
:1028C80078600B467B807B687A889A8500BF0C37D6
:1028D800BD4680BC704780B483B000AF78600B46BB
:1028E8007B807B687A889A8600BF0C37BD4680BC9F
:1028F800704780B483B000AF78600B467B807B68FC
:102908007A881A8700BF0C37BD4680BC704780B4F0
:1029180083B000AF78600B467B807B687A889A87A3
:1029280000BF0C37BD4680BC704780B483B000AF91
:1029380078600B467B807B687A88A3F8402000BFCC
:102948000C37BD4680BC704780B483B000AF786058
:102958000B467B807B681B8B9BB223F00C039AB2DF
:102968007B681A837B681B8B9AB27B8813439AB265
:102978007B681A8300BF0C37BD4680BC704780B4A3
:1029880083B000AF78600B467B807B681B8B9BB263
:1029980023F440639AB27B681A837B681B8B9AB2D4
:1029A8007B881B029BB213439AB27B681A8300BFD1
:1029B8000C37BD4680BC704780B483B000AF7860E8
:1029C8000B467B807B689B8B9BB223F00C039AB2EF
:1029D8007B689A837B689B8B9AB27B8813439AB2F5
:1029E8007B689A8300BF0C37BD4680BC704780B4B3
:1029F80083B000AF78600B467B807B689B8B9BB273
:102A080023F440639AB27B689A837B689B8B9AB263
:102A18007B881B029BB213439AB27B689A8300BFE0
:102A28000C37BD4680BC704780B483B000AF786077
:102A38000B467B807B681B889BB223F440739AB259
:102A48007B681A807B681B889AB27B8813439AB28A
:102A58007B681A8000BF0C37BD4680BC704780B4C5
:102A680083B000AF78607B689B8E9BB218460C37AA
:102A7800BD4680BC704780B483B000AF78607B6887
:102A88001B8F9BB218460C37BD4680BC704780B47C
:102A980083B000AF78607B689B8F9BB218460C3779
:102AA800BD4680BC704780B483B000AF78607B6857
:102AB800B3F840309BB218460C37BD4680BC70470F
:102AC80080B483B000AF78607B689B8C9BB218465B
:102AD8000C37BD4680BC704780B483B000AF7860C7
:102AE8007B681B8D9BB218460C37BD4680BC70476F
:102AF80080B485B000AF78600B467B800023FB7301
:102B08007B681B8A9AB27B8813409BB2002B02D049
:102B18000123FB7301E00023FB73FB7B184614378A
:102B2800BD4680BC704780B483B000AF78600B4668
:102B38007B807B88DB439AB27B681A8200BF0C37A4
:102B4800BD4680BC704780B485B000AF78600B4646
:102B58007B800023FB730023BB8100237B817B6880
:102B68001B8A9AB27B881340BB817B689B899AB287
:102B78007B8813407B81BB89002B05D07B89002B88
:102B880002D00123FB7301E00023FB73FB7B184693
:102B98001437BD4680BC704780B483B000AF7860FE
:102BA8000B467B807B88DB439AB27B681A8200BF26
:102BB8000C37BD4680BC704780B487B000AFF86062
:102BC800084611461A4603467B810B463B8113464D
:102BD800FB800023BB820023FB82FB681B8C9BB21B
:102BE80023F001039AB2FB681A84FB681B8BBB8233
:102BF800FB681B8CFB82BB8A23F0F303BB82FB8838
:102C08001B019AB23B8913439AB2BB8A1343BB8216
:102C1800FB681C4A934213D0FB681B4A93420FD0AF
:102C2800FB68B3F1804F0BD0FB68184A934207D07A
:102C3800FB68174A934203D0FB68164A93420BD1AC
:102C4800FB8A23F00203FB827A89FB8A13439BB237
:102C580043F00103FB820AE0FB8A23F00A03FB82AC
:102C68007A89FB8A13439BB243F00103FB82FB681A
:102C7800BA8A1A83FB68FA8A1A8400BF1C37BD46D1
:102C880080BC7047002C0140003401400004004023
:102C980000080040000C004080B487B000AFF86026
:102CA800084611461A4603467B810B463B8113466C
:102CB800FB800023BB820023FB8200237B82FB680E
:102CC8001B8C9BB223F010039AB2FB681A84FB6832
:102CD8001B8BBB82FB681B8CFB827B891B017B8265
:102CE800BB8A23F440731B051B0DBB82FB881B03A7
:102CF8009AB2BB8A1343BB823B891B029AB2BB8A36
:102D08001343BB82FB681C4A934213D0FB681B4ADF
:102D180093420FD0FB68B3F1804F0BD0FB68184A81
:102D2800934207D0FB68174A934203D0FB68164AC0
:102D380093420BD1FB8A23F02003FB827A8AFB8A19
:102D480013439BB243F01003FB820AE0FB8A23F093
:102D5800A003FB827A89FB8A13439BB243F01003DA
:102D6800FB82FB68BA8A1A83FB68FA8A1A8400BF56
:102D78001C37BD4680BC7047002C01400034014020
:102D88000004004000080040000C004080B487B0F8
:102D980000AFF860084611461A4603467B810B4689
:102DA8003B811346FB800023BB820023FB82002368
:102DB8007B82FB681B8C9BB223F480739AB2FB68FE
:102DC8001A84FB689B8BBB82FB681B8CFB827B890C
:102DD8001B027B82BB8A23F0F303BB82FB881B01A7
:102DE8009AB23B8913439AB2BB8A1343BB82FB68EE
:102DF8001C4A934213D0FB681B4A93420FD0FB68CE
:102E0800B3F1804F0BD0FB68184A934207D0FB6898
:102E1800174A934203D0FB68164A93420BD1FB8AA8
:102E280023F40073FB827A8AFB8A13439BB243F430
:102E38008073FB820AE0FB8A23F42063FB827A8991
:102E4800FB8A13439BB243F48073FB82FB68BA8A04
:102E58009A83FB68FA8A1A8400BF1C37BD4680BC77
:102E6800704700BF002C01400034014000040040BE
:102E780000080040000C004080B487B000AFF86044
:102E8800084611461A4603467B810B463B8113468A
:102E9800FB800023BB820023FB8200237B82FB682C
:102EA8001B8C9BB223F480539AB2FB681A84FB688C
:102EB8009B8BBB82FB681B8CFB827B891B037B8201
:102EC800BB8A23F440731B051B0DBB823B891B0285
:102ED8009AB2BB8A1343BB82FB881B039AB2BB8A94
:102EE8001343BB82FB681D4A934213D0FB681C4AFC
:102EF80093420FD0FB68B3F1804F0BD0FB68194A9F
:102F0800934207D0FB68184A934203D0FB68174ADC
:102F180093420BD1FB8A23F40053FB827A8AFB8A03
:102F280013439BB243F48053FB820CE0FB8A23F4E7
:102F380000735B045B0CFB827A89FB8A13439BB2A8
:102F480043F48053FB82FB68BA8A9A83FB68FA8A47
:102F58001A8400BF1C37BD4680BC7047002C014056
:102F6800003401400004004000080040000C00400C
:102F780080B582B000AF78607B68264A93420AD158
:102F880001214FF48040FEF74DF800214FF48040B6
:102F9800FEF748F83AE07B681F4A93420AD10121BC
:102FA8004FF40030FEF75CF800214FF40030FEF7D4
:102FB80057F82BE07B68194A93420AD101214FF454
:102FC8008020FEF74DF800214FF48020FEF748F8E6
:102FD8001CE07B68124A93420AD101214FF4002079
:102FE800FEF73EF800214FF40020FEF739F80DE017
:102FF8007B680C4A934209D101214FF48010FEF7F7
:103008002FF800214FF48010FEF72AF800BF083788
:10301800BD4680BD003801400044004000480040E3
:10302800004C00400050004080B58CB000AF786084
:1030380039600023FB620023BB6200237B6200230C
:103048003B620023FB617B68FB617B681B8A9BB248
:10305800FB62FA6A4CF6FF731340FB623B68DB883D
:103068001A46FB6A1343FB62FB6A9AB27B681A82B0
:103078007B689B899BB2FB62FA6A4EF6F313134096
:10308800FB623B689A883B681B8913439AB23B688A
:103098005B8913439BB21A46FB6A1343FB62FB6AC4
:1030A8009AB27B689A817B689B8A9BB2FB62FA6AB8
:1030B8004FF6FF431340FB623B689B891A46FB6A45
:1030C8001343FB62FB6A9AB27B689A8207F1080392
:1030D8001846FDF79DFEFB692E4A934202D17B6993
:1030E800BB6201E03B69BB627B689B899BB21BB2F8
:1030F800002B0CDABA6A13469B0013449A001A4450
:103108003B681B685B00B2FBF3F37B620BE0BA6AB7
:1031180013469B0013449A001A443B681B689B00A3
:10312800B2FBF3F37B627B6A1B4AA2FB03235B09B6
:103138001B01FB62FB6A1B09642202FB03F37A6A28
:10314800D31A3B627B689B899BB21BB2002B0CDABB
:103158003B6ADB003233104AA2FB03235B0903F00E
:103168000703FA6A1343FB620BE03B6A1B01323325
:10317800094AA2FB03235B0903F00F03FA6A13430E
:10318800FB62FB6A9AB27B681A8100BF3037BD4682
:1031980080BD00BF003801401F85EB5180B483B06B
:1031A80000AF78607B684FF416521A607B68002283
:1031B8009A807B680022DA807B6800221A817B680B
:1031C8000C225A817B6800229A8100BF0C37BD46C9
:1031D80080BC704780B485B000AF78603960002348
:1031E800FB607B681B8A9BB2FB60FA684FF2FF03A7
:1031F8001340FB603B681A883B685B8813439AB2AC
:103208003B689B8813439AB23B68DB8813439BB2A5
:103218001A46FB681343FB60FB689AB27B681A8204
:1032280000BF1437BD4680BC704780B483B000AF80
:1032380078607B6800221A807B6800225A807B684D
:1032480000229A807B680022DA8000BF0C37BD46D6
:1032580080BC704780B483B000AF78600B46FB70C9
:10326800FB78002B08D07B689B899BB243F4005302
:103278009AB27B689A8107E07B689B899BB223F4AA
:1032880000539AB27B689A8100BF0C37BD4680BC58
:10329800704780B487B000AF78600B467B801346D8
:1032A8007B7000233B610023FB600023BB6000238D
:1032B8007B617B687B617B88DBB25B09DBB23B614E
:1032C8007B8803F01F03FB600122FB6802FA03F30B
:1032D800BB603B69012B03D17B690C337B6109E03F
:1032E8003B69022B03D17B6910337B6102E07B6968
:1032F80014337B617B78002B06D07B6919687B6966
:10330800BA680A431A6006E07B691968BB68DA4341
:103318007B690A401A6000BF1C37BD4680BC7047F5
:1033280080B483B000AF78600B467B8013467B7017
:103338007B78002B08D07B689B8A9AB27B881343E2
:103348009AB27B689A8209E07B689B8A9AB27B88EA
:10335800DB439BB213409AB27B689A8200BF0C375A
:10336800BD4680BC704780B483B000AF78600B4620
:10337800FB707B681B8A9BB223F00F039AB27B68B1
:103388001A827B681B8A9AB2FB789BB213439AB263
:103398007B681A8200BF0C37BD4680BC704780B47A
:1033A80083B000AF78600B467B807B689B899BB2BB
:1033B80023F400639AB27B689A817B689B899AB2EE
:1033C8007B8813439AB27B689A8100BF0C37BD464D
:1033D80080BC704780B483B000AF78600B46FB7048
:1033E800FB78002B08D07B689B899BB243F00203D3
:1033F8009AB27B689A8107E07B689B899BB223F02D
:1034080002039AB27B689A8100BF0C37BD4680BC24
:10341800704780B483B000AF78600B467B807B68D0
:103428001B8A9BB223F020039AB27B681A827B68BE
:103438001B8A9AB27B8813439AB27B681A8200BFB0
:103448000C37BD4680BC704780B483B000AF78604D
:103458000B46FB70FB78002B08D07B681B8A9BB25D
:1034680043F480439AB27B681A8207E07B681B8A20
:103478009BB223F480439AB27B681A8200BF0C3750
:10348800BD4680BC704780B483B000AF78600B46FF
:103498007B807B88C3F308039AB27B689A8000BF5D
:1034A8000C37BD4680BC704780B483B000AF7860ED
:1034B8007B689B889BB2C3F308039BB218460C3702
:1034C800BD4680BC704780B483B000AF78607B682D
:1034D8009B899BB243F001039AB27B689A8100BF33
:1034E8000C37BD4680BC704780B483B000AF7860AD
:1034F8000B46FB707B681B8B9BB2DBB29AB27B6876
:103508001A837B681B8B9AB2FB789BB21B029BB217
:1035180013439AB27B681A8300BF0C37BD4680BC40
:10352800704780B483B000AF78600B46FB707B684F
:103538001B8B9BB223F0FF039AB27B681A837B68CC
:103548001B8B9AB2FB789BB213439AB27B681A839F
:1035580000BF0C37BD4680BC704780B483B000AF55
:1035680078600B46FB70FB78002B08D07B689B8A41
:103578009BB243F020039AB27B689A8207E07B688B
:103588009B8A9BB223F020039AB27B689A8200BF81
:103598000C37BD4680BC704780B483B000AF7860FC
:1035A8000B46FB70FB78002B08D07B689B8A9BB28C
:1035B80043F010039AB27B689A8207E07B689B8A83
:1035C8009BB223F010039AB27B689A8200BF0C3733
:1035D800BD4680BC704780B483B000AF78600B46AE
:1035E800FB70FB78002B08D07B689B8A9BB243F06A
:1035F80008039AB27B689A8207E07B689B8A9BB231
:1036080023F008039AB27B689A8200BF0C37BD4644
:1036180080BC704780B483B000AF78600B46FB7005
:10362800FB78002B0AD07B689B899BB26FEA4343E7
:103638006FEA53439AB27B689A8107E07B689B895B
:103648009BB2C3F30E039AB27B689A8100BF0C3712
:10365800BD4680BC704780B483B000AF78600B462D
:10366800FB70FB78002B08D07B689B8A9BB243F4E5
:1036780000639AB27B689A8207E07B689B8A9BB258
:1036880023F400639AB27B689A8200BF0C37BD4668
:1036980080BC704780B483B000AF78600B467B80F5
:1036A8007B689B8A9BB223F004039AB27B689A8258
:1036B8007B689B8A9AB27B8813439AB27B689A820A
:1036C80000BF0C37BD4680BC704780B483B000AFE4
:1036D80078600B46FB70FB78002B08D07B689B8AD0
:1036E8009BB243F002039AB27B689A8207E07B6838
:1036F8009B8A9BB223F002039AB27B689A8200BF2E
:103708000C37BD4680BC704780B485B000AF786088
:103718000B467B800023FB737B681B889AB27B88EF
:1037280013409BB2002B02D00123FB7301E000235E
:10373800FB73FB7B18461437BD4680BC704780B4CA
:1037480083B000AF78600B467B807B88DB439AB2FE
:103758007B681A8000BF0C37BD4680BC704780B4B8
:1037680087B000AF78600B467B800023FB600023A6
:103778007B610023BB600023FB747B88DBB25B09A1
:10378800DBB2BB607B8803F01F037B6101227B698E
:1037980002FA03F37B61BB68012B07D17B689B8925
:1037A8009BB21A467B6913407B6111E0BB68022B10
:1037B80007D17B681B8A9BB21A467B6913407B61E1
:1037C80006E07B689B8A9BB21A467B6913407B6143
:1037D8007B881B0A9BB2FB600122FB6802FA03F399
:1037E800FB607B681B889BB21A46FB681340FB6032
:1037F8007B69002B05D0FB68002B02D00123FB74EA
:1038080001E00023FB74FB7C18461C37BD4680BCD6
:10381800704780B485B000AF78600B467B8000238A
:10382800FB810023BB817B881B0AFB81FB8901226A
:1038380002FA03F3BB81BB89DB439AB27B681A8027
:1038480000BF1437BD4680BC704700BF80B582B04A
:1038580000AF78607B68174A93420AD101214FF480
:103868000070FDF7DFFB00214FF40070FDF7DAFB75
:103878001CE07B68104A93420AD101214FF4806012
:10388800FDF7D0FB00214FF48060FDF7CBFB0DE086
:103898007B680A4A934209D101214FF40040FDF7A1
:1038A800C1FB00214FF40040FDF7BCFB00BF083707
:1038B800BD4680BD0024014000280140003C014075
:1038C80080B485B000AF786039600023FB600023C6
:1038D800FB727B685B68FB60FB6823F4702323F44E
:1038E8008073FB603B681A683B681B791B021343B3
:1038F800FA681343FB607B68FA685A607B689B68C8
:10390800FB60FA68164B1340FB603B68DA683B685B
:103918009B681A433B685B795B001343FA6813435F
:10392800FB607B68FA689A607B68DB6AFB60FB680F
:1039380023F47003FB603B681B7C013BDAB2FB7A23
:103948001343FB72FB7A1B05FA681343FB607B6821
:10395800FA68DA6200BF1437BD4680BC704700BF02
:10396800FDF7F1FF80B483B000AF78607B68002278
:103978001A607B6800221A717B6800225A717B6882
:1039880000229A607B680022DA607B6801221A7440
:1039980000BF0C37BD4680BC704780B483B000AF11
:1039A80078600B46FB70FB78002B06D07B689B6821
:1039B80043F001027B689A6005E07B689B6823F00E
:1039C80001027B689A6000BF0C37BD4680BC704717
:1039D80080B483B000AF78600B46FB70FB78002B97
:1039E80006D07B689B6843F480727B689A6005E028
:1039F8007B689B6823F480727B689A6000BF0C37F1
:103A0800BD4680BC704780B485B000AF78600B4677
:103A18007B8013467B700023FB737B88FB737B786A
:103A2800002B06D07B685A68FB7B1A437B685A6078
:103A380006E07B685A68FB7BDB431A407B685A6068
:103A480000BF1437BD4680BC704780B483B000AF58
:103A580078607B689B6843F008027B689A6000BFC7
:103A68000C37BD4680BC704780B485B000AF786025
:103A78000023FB737B689B6803F00803002B02D0CC
:103A88000123FB7301E00023FB73FB7B184614370B
:103A9800BD4680BC704780B483B000AF78607B6857
:103AA8009B6843F004027B689A6000BF0C37BD46F0
:103AB80080BC704780B485B000AF78600023FB738A
:103AC8007B689B6803F00403002B02D00123FB737F
:103AD80001E00023FB73FB7B18461437BD4680BC0E
:103AE800704780B483B000AF78600B46FB70FB78FA
:103AF800002B06D07B689B6843F4A0027B689A6021
:103B080005E07B689B6823F4A0027B689A6000BF8D
:103B18000C37BD4680BC704780B485B000AF786074
:103B28000023FB737B689B6803F48003002B02D09F
:103B38000123FB7301E00023FB73FB7B184614375A
:103B4800BD4680BC704780B485B000AF78600B4636
:103B5800FB700023FB600023BB607B685B68FB6035
:103B6800FB6823F46043FB60FB78013BBB60BB68E8
:103B78005B03FA681343FB607B68FA685A6000BF0E
:103B88001437BD4680BC704780B483B000AF7860FE
:103B98000B46FB70FB78002B06D07B685B6843F410
:103BA80000627B685A6005E07B685B6823F400620A
:103BB8007B685A6000BF0C37BD4680BC704780B434
:103BC80085B000AF7860084611461A460346FB7078
:103BD8000B46BB7013467B700023FB600023BB6061
:103BE800FB78092B23D97B68DB68FB60FB78A3F1A2
:103BF8000A0213465B001344072202FA03F3BB6070
:103C0800BB68DB43FA681340FB607978FB78A3F163
:103C18000A0213465B00134401FA03F3BB60FA6817
:103C2800BB681343FB607B68FA68DA601EE07B6858
:103C38001B69FB60FA7813465B001344072202FAFB
:103C480003F3BB60BB68DB43FA681340FB60797819
:103C5800FA7813465B00134401FA03F3BB60FA6871
:103C6800BB681343FB607B68FA681A61BB78062B54
:103C780021D87B685B6BFB60BB785A1E13469B00A0
:103C880013441F2202FA03F3BB60BB68DB43FA68E4
:103C98001340FB60F978BB785A1E13469B00134407
:103CA80001FA03F3BB60FA68BB681343FB607B68E7
:103CB800FA685A6347E0BB780C2B21D87B681B6BEA
:103CC800FB60BB78DA1F13469B0013441F2202FADD
:103CD80003F3BB60BB68DB43FA681340FB60F97809
:103CE800BB78DA1F13469B00134401FA03F3BB6049
:103CF800FA68BB681343FB607B68FA681A6322E0C2
:103D08007B68DB6AFB60BB78A3F10D0213469B005E
:103D180013441F2202FA03F3BB60BB68DB43FA6853
:103D28001340FB60F978BB78A3F10D0213469B00A2
:103D3800134401FA03F3BB60FA68BB681343FB60E2
:103D48007B68FA68DA6200BF1437BD4680BC7047EA
:103D580080B483B000AF78600B46FB70FB78002B13
:103D680006D07B689B6843F480127B689A6005E004
:103D78007B689B6823F480127B689A6000BF0C37CD
:103D8800BD4680BC704780B483B000AF78607B6864
:103D9800DB6C9BB218460C37BD4680BC704780B4BC
:103DA80000AF034B1B681846BD4680BC704700BF78
:103DB8004C24014080B483B000AF78600B46FB70A0
:103DC800FB78002B06D07B685B6843F480627B68D5
:103DD8005A6005E07B685B6823F480627B685A6000
:103DE80000BF0C37BD4680BC704780B483B000AFBD
:103DF80078600B46FB70FB78002B06D07B685B680D
:103E080043F480527B685A6005E07B685B6823F462
:103E180080527B685A6000BF0C37BD4680BC704733
:103E280080B485B000AF786039600023FB607B68A0
:103E38009B68FB60FB6823F4E043FB60FA683B681F
:103E48001343FB607B68FA689A6000BF1437BD466D
:103E580080BC704780B483B000AF78600B46FB70BD
:103E6800FB78002B06D07B689B6843F400427B6894
:103E78009A6005E07B689B6823F400427B689A603F
:103E880000BF0C37BD4680BC704780B483B000AF1C
:103E980078600B46FB70FB78002B06D07B689B682C
:103EA80043F402127B689A6005E07B689B6823F400
:103EB80002127B689A6000BF0C37BD4680BC704711
:103EC80080B485B000AF78600023FB737B689B6883
:103ED80003F40013002B02D00123FB7301E000233D
:103EE800FB73FB7B18461437BD4680BC704780B413
:103EF80087B000AF7860084611461A460346FB7043
:103F08000B46BB7013467B7000237B6100233B612B
:103F18000023FB60FB78092B23D97B68DB687B6176
:103F2800FB78A3F10A0213465B001344072202FA46
:103F380003F33B613B69DB437A6913407B61797822
:103F4800FB78A3F10A0213465B00134401FA03F35A
:103F58003B617A693B6913437B617B687A69DA6004
:103F68001EE07B681B697B61FA7813465B0013448B
:103F7800072202FA03F33B613B69DB437A6913408A
:103F88007B617978FA7813465B00134401FA03F3EE
:103F98003B617A693B6913437B617B687A691A6183
:103FA8007B689B6B7B617B691B0D03F00303FB60E4
:103FB800FB68DBB2BA78D31ADBB20233DBB21A463B
:103FC80013469B0013441F2202FA03F33B613B692B
:103FD800DB437A6913407B61FA78FB68DBB2B97816
:103FE800CB1ADBB20233DBB219460B469B000B44FB
:103FF80002FA03F33B617A693B6913437B617B688F
:104008007A699A6300BF1C37BD4680BC704780B48C
:1040180085B000AF78600B46FB700023FB6000237F
:10402800BB607B689B6BFB60FB6823F44013FB6001
:10403800FB78013BBB60BB681B05FA681343FB6058
:104048007B68FA689A6300BF1437BD4680BC704726
:1040580080B485B000AF78600B46FB7013463B8098
:104068000023FB607B68FB60FA78FB681344FB6005
:10407800FB681A463B88136000BF1437BD4680BCF6
:10408800704780B485B000AF78600B46FB700023A2
:10409800FB607B68FB60FA78FB6813442833FB609D
:1040A800FB681B689BB218461437BD4680BC704736
:1040B80080B485B000AF786039600023FB607B680E
:1040C8005B68FB60FB6823F4400323F40073FB6028
:1040D800FA683B681343FB607B68FA685A6000BF64
:1040E8001437BD4680BC704780B483B000AF786099
:1040F8000B467B8013463B807A887B685A623A88F5
:104108007B689A6200BF0C37BD4680BC704780B49C
:1041180085B000AF78600B46FB700023FB607B68BE
:104128005B68FB60FB6823F01F03FB60FB78FA68A1
:104138001343FB607B68FA685A6000BF1437BD46BA
:1041480080BC704780B483B000AF0346FB71FB7935
:10415800002B06D0084B9B68074A43F40003936082
:1041680005E0054B9B68044A23F40003936000BFF5
:104178000C37BD4680BC70470024014080B485B030
:1041880000AF78600B46FB700023FB737B681A68EE
:10419800FB781340002B02D00123FB7301E00023BE
:1041A800FB73FB7B18461437BD4680BC704780B450
:1041B80083B000AF78600B46FB70FB78DA437B680E
:1041C8001A6000BF0C37BD4680BC704780B487B00A
:1041D80000AF78600B467B800023FB7500233B61B2
:1041E8000023FB607B881B0A9BB23B617B685B6892
:1041F8007A88D2B21340FB607B681A683B69134027
:10420800002B05D0FB68002B02D00123FB7501E0D1
:104218000023FB75FB7D18461C37BD4680BC7047E4
:1042280080B485B000AF78600B467B800023FB73B9
:104238007B881B0A9BB2FB73FB7BDA437B681A60A3
:1042480000BF1437BD4680BC704700BF80B483B040
:1042580000AF7860054A7B6843F0BF6343F40033DE
:10426800D36000BF0C37BD4680BC704700ED00E04E
:1042780080B487B000AF786000237B6100233B6186
:104288000F23FB607B68DB78002B3AD0274BDB6879
:10429800DB431B0A03F007037B617B69C3F104035B
:1042A8003B61FA687B6922FA03F3FB607B685B7801
:1042B8001A463B6902FA03F37B617B689B781A46CE
:1042C800FB6813407A6913437B617B691B017B613F
:1042D800174A7B681B787969C9B213440A4683F880
:1042E80000237B681B7803F01F0311497A68127852
:1042F8005209D2B21046012202FA03F341F82030E3
:104308000FE07B681B7803F01F0309497A6812786D
:104318005209D2B2104601229A4000F1200341F816
:10432800232000BF1C37BD4680BC704700ED00E06D
:1043380000E100E080B483B000AF786039603B688A
:1043480023F0604323F07F0304497A6813438B60AA
:1043580000BF0C37BD4680BC704700BF00ED00E0D1
:1043680080B483B000AF03460A46FB711346BB71A5
:10437800BB79002B06D0094B1A69FB79074913430F
:104388000B6106E0054B1A69FB79DB4303491340CF
:104398000B6100BF0C37BD4680BC704700ED00E0E4
:1043A80080B483B000AF78607B68042B06D1094BDA
:1043B8001B68084A43F00403136005E0054B1B68BB
:1043C800044A23F00403136000BF0C37BD4680BCC9
:1043D800704700BF10E000E080B582B000AF7860A1
:1043E8007B68174A93420AD101214FF48050FCF7A9
:1043F80019FE00214FF48050FCF714FE1CE07B6886
:10440800104A93420AD101214FF48040FCF728FE5C
:1044180000214FF48040FCF723FE0DE07B680A4A38
:10442800934209D101214FF40040FCF719FE002105
:104438004FF40040FCF714FE00BF0837BD4680BDAE
:104448000030014000380040003C004080B485B096
:1044580000AF786039600023FB817B681B88FB8193
:10446800FB8903F44153FB813B681A883B685B88EE
:1044780013439AB23B689B8813439AB23B68DB8824
:1044880013439AB23B681B8913439AB23B685B8912
:1044980013439AB23B689B8913439AB23B68DB8902
:1044A80013439AB2FB891343FB817B68FA891A800C
:1044B8007B689B8B9BB223F400639AB27B689A83D8
:1044C8003B681A8A7B681A8200BF1437BD4680BCD5
:1044D800704780B58CB000AF7860396000237B846A
:1044E8000223FB850023BB8501237B8500237B6298
:1044F8000023FB617B689B8B9BB223F47B6323F0D7
:104508000F039AB27B689A837B6802221A847B68BD
:104518009B8B7B843B689B68022B04D10023BB8563
:104528000223FB8555E03B689B88002B02D10123C1
:104538007B8501E002237B857B683D4A934203D15A
:104548004FF400337B6202E04FF480237B6207F173
:1045580008031846FCF75CFCBB68FB613B68DB881A
:10456800B3F5007F0FD1FB691A0A13469B00134469
:104578005B001A463B689B68B2FBF3F39BB20533BA
:104588009BB27B6212E07B8D5B011A46FB69B3FB31
:10459800F2F213469B0013445B001A463B689B6883
:1045A800B2FBF3F39BB205339BB27B627B6A214A71
:1045B800A2FB0323DB087B627B6A9BB203F0010347
:1045C800BB85BB8D7A6AD31A5B08FB85BB8D1B0242
:1045D800BB85FB8D012B02D9FB8DFF2B03D9022351
:1045E800FB850023BB853B68DA88BB8D13439AB2F1
:1045F800FB8D13439AB27B681A843B681A883B6820
:1046080059883B6898883B689B8903439BB20B4356
:104618009BB213439AB27B8C13439BB243F400635F
:104628007B847B687A8C9A8300BF3037BD4680BD17
:1046380000380040CDCCCCCC80B483B000AF7860DB
:104648007B6800221A807B6800225A807B680022DF
:104658009A807B680022DA807B6800221A817B6856
:1046680000225A817B6800229A817B680022DA81C5
:104678007B6807221A8200BF0C37BD4680BC704792
:1046880080B483B000AF78607B6800221A807B68B2
:1046980000225A807B6800229A807B680022DA8098
:1046A8007B6802229A607B6800229A8100BF0C37DF
:1046B800BD4680BC704780B483B000AF78600B46BD
:1046C800FB70FB78002B08D07B681B889BB243F0FB
:1046D80040039AB27B681A8007E07B681B889BB20C
:1046E80023F040039AB27B681A8000BF0C37BD469E
:1046F80080BC704780B483B000AF78600B46FB7015
:10470800FB78002B08D07B689B8B9BB243F48063BB
:104718009AB27B689A8307E07B689B8B9BB223F4F1
:1047280080639AB27B689A8300BF0C37BD4680BC11
:10473800704780B485B000AF78600B46FB701346B5
:10474800BB700023FB810023BB81FB781B09DBB214
:10475800FB81FB89012202FA03F3BB81BB78002BA2
:1047680008D07B689B889AB2BB8913439AB27B684E
:104778009A8009E07B689B889AB2BB89DB439BB22D
:1047880013409AB27B689A8000BF1437BD4680BC3C
:10479800704780B483B000AF78600B467B801346C7
:1047A8007B707B78002B08D07B689B889AB27B88CB
:1047B80013439AB27B689A8009E07B689B889AB217
:1047C8007B88DB439BB213409AB27B689A8000BF18
:1047D8000C37BD4680BC704780B483B000AF7860AA
:1047E8000B467B807B687A889A8100BF0C37BD4670
:1047F80080BC704780B483B000AF78607B689B89C9
:104808009BB218460C37BD4680BC704780B483B055
:1048180000AF78600B467B807B884FF6FF6293423F
:1048280008D07B681B889BB243F480739AB27B687C
:104838001A8007E07B681B889BB223F480739AB2C6
:104848007B681A8000BF0C37BD4680BC704780B4B7
:1048580083B000AF78600B46FB70FB78002B08D064
:104868007B689B889BB243F004039AB27B689A806A
:1048780007E07B689B889BB223F004039AB27B68AD
:104888009A8000BF0C37BD4680BC704780B483B0A7
:1048980000AF78600B467B807B681B889BB223F453
:1048A80000639AB27B681A807B681B889AB27B88FF
:1048B80013439AB27B681A8000BF0C37BD4680BC90
:1048C800704780B483B000AF78607B681B889BB268
:1048D80043F480539AB27B681A8000BF0C37BD46F8
:1048E80080BC704780B483B000AF78600B46FB7023
:1048F800FB78002B08D07B681B889BB243F40053DD
:104908009AB27B681A8007E07B681B889BB223F405
:1049180000539AB27B681A8000BF0C37BD4680BC32
:10492800704780B485B000AF78600B46FB700023F9
:10493800FB81FB78012B03D07B681B8BFB8102E09A
:104948007B689B8AFB81FB8918461437BD4680BC6F
:10495800704780B483B000AF78607B681B8A9BB2D5
:1049680018460C37BD4680BC704780B483B000AF92
:1049780078600B467B807B88B3F5804F08D17B68D5
:104988001B889BB243F480439AB27B681A8007E085
:104998007B681B889BB223F480439AB27B681A8099
:1049A80000BF0C37BD4680BC704780B485B000AFEF
:1049B80078600B467B800023FB737B681B899AB267
:1049C8007B8813409BB2002B02D00123FB7301E0CC
:1049D8000023FB73FB7B18461437BD4680BC704729
:1049E80080B483B000AF78600B467B807B88DB4364
:1049F8009AB27B681A8100BF0C37BD4680BC7047ED
:104A080080B485B000AF78600B46FB700023FB7361
:104A18000023BB8100237B8100233B81FB7803F0CB
:104A28000F03012202FA03F3BB81FB781B09DBB2F7
:104A38007B817B89012202FA03F37B817B689B8857
:104A48009AB27B8913403B817B681B899AB2BB89E8
:104A580013409BB2002B05D03B89002B02D00123C9
:104A6800FB7301E00023FB73FB7B18461437BD463C
:104A780080BC704780B485B000AF78600B46FB708F
:104A88000023FB81FB7803F00F03012202FA03F3F2
:104A9800FB81FB89DB439AB27B681A8100BF14371C
:104AA800BD4680BC704700BF80B500AF154B1B6882
:104AB800144A43F001031360124B5A681149124B10
:104AC80013404B600F4B1B680E4A23F0847323F48A
:104AD800803313600B4B1B680A4A23F4802313604E
:104AE800084B5B68074A23F4FE035360054B4FF4F9
:104AF8001F029A6000F078F8044B4FF000629A6049
:104B080000BF80BD001002400000FFF800ED00E08B
:104B180080B485B000AF0023FB600023BB60002396
:104B28007B602C4B5B6803F00C03FB60FB68042B79
:104B380007D0082B09D0002B33D1274B274A1A60FE
:104B480033E0254B254A1A602FE0224B5B6803F4BB
:104B58007013BB601F4B5B6803F480337B60BB68DA
:104B68009B0C0233BB607B68002B06D1BB681C4AD8
:104B780002FB03F3184A136017E0164B5B6803F453
:104B88000033002B06D0BB68154A02FB03F3124A18
:104B980013600AE0BB68114A02FB03F30E4A136074
:104BA80003E00D4B0D4A1A6000BF0A4B5B681B09F6
:104BB80003F00F030B4AD35CDBB2FB60064B1A68A9
:104BC800FB6822FA03F3044A136000BF1437BD469A
:104BD80080BC7047001002401400002000127A00C8
:104BE80000093D001800002080B500AF00F002F871
:104BF80000BF80BD80B483B000AF00237B6000237A
:104C08003B603A4B1B68394A43F480331360374B97
:104C18001B6803F400333B607B6801337B603B68AF
:104C2800002B03D17B68B3F5A06FF0D12F4B1B6825
:104C380003F40033002B02D001233B6001E0002382
:104C48003B603B68012B4BD1294B1B68284A43F03A
:104C580010031360264B1B68254A23F003031360D7
:104C6800234B1B68224A43F0020313601F4B1F4A61
:104C78005B6853601D4B1D4A5B6853601B4B5B6848
:104C88001A4A43F480635360184B5B68174A23F44D
:104C98007C135360154B5B68144A43F4E813536064
:104CA800124B1B68114A43F08073136000BF0F4B0F
:104CB8001B6803F00073002BF9D00C4B5B680B4AA0
:104CC80023F003035360094B5B68084A43F002036F
:104CD800536000BF054B5B6803F00C03082BF9D148
:104CE80000BF0C37BD4680BC704700BF00100240B3
:104CF800002002400000000098B500AF03F036FF26
:104D080040F6B83001F010FE03F0F8FF00F090FB19
:104D180000F0ECFC4FF47A3002F02EF902F0BCF807
:104D280001F03EFE01F078FE02F008F801F0A2FF63
:104D380003F037FF01F010F901F058F901F0A0F97C
:104D480000F01CFD564B1B78012B04D103F029FF02
:104D5800534B00221A70534B1B78012B07D1FF21AC
:104D6800FF2002F055F94F4B00221A700BE04D4B13
:104D78001B78022B07D14C4B1B78184602F09EFB80
:104D8800484B00221A70494B1B78022B08D1484B1C
:104D98001B78184601F0DCF9444B00221A7008E031
:104DA800424B1B78052B04D101F0A6FC3F4B002297
:104DB8001A70404B1B78012BBCD10A2002F0BAF8BC
:104DC80003461A463C4B1A803B4B1B88184604F096
:104DD800FDFB31A3D3E9002304F062FC03460C4633
:104DE800184621464FF00002344B04F083FD034679
:104DF8000C46184621464FF00002314B04F050FC97
:104E080003460C461846214604F05CFE0346DAB217
:104E18002C4BDA712B4B24221A702A4B42225A70DF
:104E2800284B3D229A70274BDB79274AA2FB0323A4
:104E3800DB08DBB23033DAB2224BDA70214BDA7995
:104E4800214BA3FB0213D9080B469B000B445B00C4
:104E5800D31ADBB23033DAB21A4B1A71194B0D225E
:104E68005A71184B0A229A71184B1B78002B05D1DE
:104E780007221449164800F0BFFA04E00722114936
:104E8800144800F0B9FA642001F04EFD094B0022E5
:104E98001A704FE7AFF300806666666666660A407A
:104EA8007B3100205A0100201801002060010020F9
:104EB8002B00002052000020AC0000200000B04071
:104EC8000000244030010020CDCCCCCC5000002084
:104ED800004400400038014080B400AF00BFBD4628
:104EE80080BC704780B400AF00BFBD4680BC70472F
:104EF80080B500AF01215848FDF725FE0346002B79
:104F080000F0A480554B1B78012B02D1544B012291
:104F18001A70544B1B78012B3AD1534B1B68013341
:104F2800514A1360514B1B78002B0BD1504B1B7807
:104F3800002B07D14F49504800F042FA4C4B012250
:104F48001A700EE0494B1B78012B0AD1484B1B788D
:104F5800002B06D14749494800F032FA444B012258
:104F68001A70414B1B68052B12D13F4B00221A6067
:104F780002214348FBF7D2FB0346002B04D1022150
:104F88003F48FBF7F0FB03E002213D48FBF7F9FB44
:104F98003C4B1B78012B45D14FF400613A48FBF795
:104FA80098FB0346002B1AD1384B1B78C82B06D820
:104FB800364B1B780133DAB2344B1A7032E0334B7C
:104FC80000221A70254B00221A70264B01221A70F3
:104FD800274B00221A702B4B00221A7022E02B4B11
:104FE8001B78052B12D9294B00221A701B4B012262
:104FF8001A701C4B00221A70224B00221A70244B84
:105008001B780A2B234B01221A700BE01F4B00223E
:105018001A70124B00221A70124B00221A70194B88
:1050280000221A701B4B1B78012B05D1184B1B78DB
:105038000133DAB2164B1A70154B1B78322B05D98F
:10504800134B00221A70134B00221A7001210248D8
:10505800FDF7A2FD00BF80BD000400408A3100209A
:105068008B310020B00000205C00002050000020A0
:1050780087310020889B0008004400400038014028
:105088000008014085310020000C014088310020D3
:10509800863100208431002080B500AF0220FBF764
:1050A80099F90346012B21D10220FBF7B7F93220E9
:1050B80001F010FC0E4B1B68022B12DD0C4B00227A
:1050C8001A600C4B1B780133DAB20A4B1A700A4B80
:1050D80018780A4B1978074B1B781A4603F040FCDE
:1050E80004E0034B1B680133014A136000BF80BD15
:1050F800600000205A0000202B0000205B000020E8
:1051080080B500AF0820FBF765F90346012B08D1ED
:105118000820FBF783F9322001F0DCFB024B002268
:105128001A7000BF80BD00BF5A00002080B500AFD4
:105138004FF48070FBF74EF90346012B12D14FF460
:105148008070FBF76BF90A2001F0EEFB064B1A782A
:10515800064B1B789A4205D2034B1B780133DAB20F
:10516800014B1A7000BF80BD5B0000202A000020A0
:1051780080B500AF4FF40060FBF72CF90346012B14
:1051880020D14FF40060FBF749F90A2001F0CCFB6D
:105198004FF400610C48FBF79CFA0346002B08D13A
:1051A8000A2001F0C1FB094B00221A70084B0122AA
:1051B8001A7000BF4FF400610348FBF78AFA0346F0
:1051C800002BF7D000BF80BD000C01405B00002021
:1051D8008531002080B500AF40210B48FEF7AFFABB
:1051E80040F225510848FEF7BAFA0346002B09D0C9
:1051F800064B01221A700448FEF756F90346DAB244
:10520800034B1A7000BF80BD0038014059010020CF
:105218002801002080B500AF40210B48FEF78FFA27
:1052280040F225510848FEF79AFA0346002B09D0A8
:10523800064B01221A700448FEF736F90346DAB223
:10524800034B1A7000BF80BD004400401A010020C3
:10525800E100002080B500AF40210B48FEF76FFA4F
:1052680040F225510848FEF77AFA0346002B09D088
:10527800064B01221A700448FEF716F90346DAB203
:10528800034B1A7000BF80BD004C00407C310020E9
:10529800F900002080B400AFFEE780B400AFFEE75D
:1052A80080B400AFFEE780B400AFFEE780B400AF83
:1052B80000BFBD4680BC704780B400AF00BFBD468C
:1052C80080BC704780B400AF00BFBD4680BC70474B
:1052D80080B400AF00BFBD4680BC704780B586B0C3
:1052E80000AF01214FF40020FBF77EFE01211120C1
:1052F800FBF75CFE4FF48053BB820323BB7510237E
:10530800FB7507F1140319461F48FBF713F94FF40F
:105318008063BB820323BB751823FB7507F1140355
:1053280019461948FBF706F94FF40063BB820423BA
:10533800FB7507F1140319461348FBF7FBF84FF404
:10534800E1337B6000233B8100237B810023BB8109
:1053580000233B820C23FB813B1D19460B48FDF7BC
:1053680063FE01210948FDF775FF40210748FEF754
:10537800E6F9012240F225510448FDF78AFF00BFF3
:105388001837BD4680BD00BF00100140004C0040EA
:1053980080B582B000AF78600B46FB70FB789BB29B
:1053A80019467868FEF76FF800BF80217868FEF725
:1053B800ABF90346002BF8D000BF0837BD4680BDC7
:1053C80080B584B000AF786039600023FB603A682C
:1053D800FB6813441B7819467868FFF7D9FFFB6808
:1053E8000133FB603A68FB6813441B78002BEED14D
:1053F80000BF1037BD4680BD80B586B000AFF860ED
:10540800B9607A6000237B61BA687B6913441B78B2
:105418001946F868FFF7BCFF7B6901337B617A693D
:105428007B689A42F0D300BF1837BD4680BD00BFE5
:1054380080B582B000AF01213C20FBF7B7FD012108
:105448000120FBF7B3FD01212748FBF723FA0223CC
:10545800BB801023FB710323BB713B1D19462348F6
:10546800FBF768F802212148FBF77DF92023BB8070
:105478003B1D19461E48FBF75DF820211C48FBF729
:1054880072F91023BB803B1D19461A48FBF752F8E6
:1054980010211848FBF767F92023BB803B1D1946EC
:1054A8001448FBF747F820211248FBF75CF9012361
:1054B800BB803B1D19460E48FBF73CF801210C4800
:1054C800FBF751F94FF48073BB803B1D1946084820
:1054D800FBF730F84FF480710548FBF744F900BF3B
:1054E8000837BD4680BD00BF0002300000080140FB
:1054F800000C01400010014080B582B000AF786018
:105508004FF480711348FBF73CF97B681B78184609
:1055180001F026FB7B6801331B78184601F020FB5D
:105528007B6802331B78184601F01AFB4FF4807130
:105538000848FBF718F94FF480710648FBF721F982
:105548004FF480710348FBF70EF900BF0837BD46DA
:1055580080BD00BF000C014080B582B000AF78600C
:1055680010210B48FBF70DF97B681B78184601F0F2
:10557800BFFB7B6801331B78184601F0B9FB10218B
:105588000348FBF7F0F800BF0837BD4680BD00BFF1
:105598000010014080B582B000AF786020210B4830
:1055A800FBF7EFF87B681B78184601F0A1FB7B68D6
:1055B80001331B78184601F09BFB20210348FBF7B9
:1055C800D2F800BF0837BD4680BD00BF00100140BB
:1055D80080B500AF01210F48FBF7D3F8FF2001F099
:1055E80087FB03461A460C4B1A70FF2001F080FB1C
:1055F80003461A46084B5A70FF2001F079FB034610
:105608001A46054B9A7001210248FBF7ACF800BF17
:1056180080BD00BF000C01407801002080B584B037
:1056280000AF0346FB710023BB60194B00221A80B0
:105638000023FB731AE0174B00221A800A2001F09E
:1056480049F9FFF7C5FF144B1B781B02124A527821
:1056580013441B01104A92781209D2B213441A4615
:10566800BB681344BB60FB7B0133FB73FA7BFB799C
:105678009A42E0D3FB79BA68B2FBF3F39AB2044BCF
:105688001A80034B1B8818461037BD4680BD00BFE3
:10569800CA000020260100207801002080B582B0D1
:1056A80000AF786020211048FBF75DF820210E48F4
:1056B800FBF767F820210C48FBF755F87B681B7847
:1056C800184601F009FA08210748FBF75AF808219B
:1056D8000548FBF748F808210348FBF752F800BFD4
:1056E8000837BD4680BD00BF000C014080B586B0BC
:1056F80000AF012144F20500FBF758FC4FF400739A
:10570800BB820323BB751823FB7507F114031946E5
:105718001848FAF70FFF4FF48063BB820423FB7528
:1057280007F1140319461348FAF704FF4FF4E1335D
:105738007B6000233B8100237B810023BB81002306
:105748003B820C23FB813B1D19460B48FDF76CFC83
:10575800012240F225510848FDF79BFD012106482A
:10576800FDF778FD40210448FDF7E9FF00BF183731
:10577800BD4680BD000801400038014098B500AF23
:10578800A74B1B78012B10D1A649A74804F0DDF9D7
:10579800A34B1A78A54B1A70A54B00221A70A54B7B
:1057A80000221A7000F0AEFC37E0A34B1B78012BE7
:1057B80010D1A2499C4804F0C8F99F4B1A789B4B1A
:1057C8001A709F4B00221A709A4B00221A7000F030
:1057D80099FC22E09B4B1B78012B10D19A499248E7
:1057E80004F0B3F9974B1A78904B1A70944B002237
:1057F8001A708F4B00221A7000F084FC0DE08F495C
:10580800894804F0A2F98C4B1A78884B1A708C4B93
:1058180000221A70874B00221A7009228B4982488D
:1058280004F09BF90346002B3AD1804B1B78012BDF
:1058380036D1874B04228749184604F08EF903466F
:10584800002B0BD184498548FFF7BAFD844B002211
:105858001A7003F00FF903F031F941E37C4B04228D
:105868008049184604F079F90346002B0BD17E498C
:105878007E48FFF7A5FD7A4B01221A7003F0FAF86B
:1058880003F01CF92CE37A497848FFF799FD784929
:105898007248FFF795FD03F0EDF803F00FF91FE3E9
:1058A80008227449604804F058F90346002B14D1C3
:1058B8005E4B1B78012B10D1694B1B78002B04D150
:1058C8006D496648FFF77CFD03E06B496748FFF7C1
:1058D80077FD6A4B01221A7002E30922684952488F
:1058E80004F03BF90346002B0BD1504B1B78012BDE
:1058F80007D103F0BFF80C2262495C48FFF77CFD32
:10590800EEE206226049484804F027F90346002BD6
:1059180014D1464B1B78012B10D1514B1B78002B0F
:1059280004D15A494D48FFF74BFD03E057494F480A
:10593800FFF746FD514B01221A70D1E20822544963
:10594800394804F00AF90346002B3BD1374B1B7842
:10595800012B37D101220921334801F045FA0246CB
:105968004C4B1A60012208212F4801F03DFA0246EB
:10597800494B1A60022209212B4801F035FA0346E7
:10598800DAB2464B1A7002220B21274801F02CFA92
:105998000346DAB2414B5A7004220921224801F029
:1059A80023FA3C4B1A683C4B196804B23C4813462E
:1059B8009B0013440B44224620F813203748FFF776
:1059C800CBFD8DE208223749174804F0C6F8034694
:1059D800002B6FD1154B1B78012B6BD1204B1B78FB
:1059E800002B04D130491D48FFF7EAFC03E02E499B
:1059F8001E48FFF7E5FC0C4B1B7A303BDAB22B4B09
:105A08001A702B4B2A221A70284B1B781B01DBB209
:105A18000133DAB2264B5A702548FFF7BBFD5FE227
:105A280010010020FC000020640000207800002005
:105A3800B1000020CC0000201101002064010020EA
:105A480019010020E0000020E4000020909B0008DD
:105A58006D0000209C9B0008A49B000800440040A7
:105A680050000020AC9B0008B49B0008003801409F
:105A7800BC9B0008C49B0008D09B00087B31002019
:105A8800E09B0008D4000020EC9B0008F49B000871
:105A9800FC9B00087C0000208000002024010020DE
:105AA800B4000020089C0008149C0008280000206E
:105AB8002C0100200722A349A34804F04EF803460E
:105AC800002B20D1A14B1B78012B1CD10A2000F000
